{
  "contractName": "LipToken",
  "abi": [
    {
      "inputs": [
        {
          "internalType": "string",
          "name": "_name",
          "type": "string"
        },
        {
          "internalType": "string",
          "name": "_symbol",
          "type": "string"
        }
      ],
      "stateMutability": "nonpayable",
      "type": "constructor"
    },
    {
      "anonymous": false,
      "inputs": [
        {
          "indexed": true,
          "internalType": "address",
          "name": "owner",
          "type": "address"
        },
        {
          "indexed": true,
          "internalType": "address",
          "name": "approved",
          "type": "address"
        },
        {
          "indexed": true,
          "internalType": "uint256",
          "name": "tokenId",
          "type": "uint256"
        }
      ],
      "name": "Approval",
      "type": "event"
    },
    {
      "anonymous": false,
      "inputs": [
        {
          "indexed": true,
          "internalType": "address",
          "name": "owner",
          "type": "address"
        },
        {
          "indexed": true,
          "internalType": "address",
          "name": "operator",
          "type": "address"
        },
        {
          "indexed": false,
          "internalType": "bool",
          "name": "approved",
          "type": "bool"
        }
      ],
      "name": "ApprovalForAll",
      "type": "event"
    },
    {
      "anonymous": false,
      "inputs": [
        {
          "indexed": true,
          "internalType": "address",
          "name": "owner",
          "type": "address"
        },
        {
          "indexed": false,
          "internalType": "uint256",
          "name": "id",
          "type": "uint256"
        },
        {
          "indexed": false,
          "internalType": "uint256",
          "name": "dna",
          "type": "uint256"
        }
      ],
      "name": "NewLip",
      "type": "event"
    },
    {
      "anonymous": false,
      "inputs": [
        {
          "indexed": true,
          "internalType": "address",
          "name": "previousOwner",
          "type": "address"
        },
        {
          "indexed": true,
          "internalType": "address",
          "name": "newOwner",
          "type": "address"
        }
      ],
      "name": "OwnershipTransferred",
      "type": "event"
    },
    {
      "anonymous": false,
      "inputs": [
        {
          "indexed": true,
          "internalType": "address",
          "name": "from",
          "type": "address"
        },
        {
          "indexed": true,
          "internalType": "address",
          "name": "to",
          "type": "address"
        },
        {
          "indexed": true,
          "internalType": "uint256",
          "name": "tokenId",
          "type": "uint256"
        }
      ],
      "name": "Transfer",
      "type": "event"
    },
    {
      "inputs": [
        {
          "internalType": "address",
          "name": "to",
          "type": "address"
        },
        {
          "internalType": "uint256",
          "name": "tokenId",
          "type": "uint256"
        }
      ],
      "name": "approve",
      "outputs": [],
      "stateMutability": "nonpayable",
      "type": "function"
    },
    {
      "inputs": [
        {
          "internalType": "address",
          "name": "owner",
          "type": "address"
        }
      ],
      "name": "balanceOf",
      "outputs": [
        {
          "internalType": "uint256",
          "name": "",
          "type": "uint256"
        }
      ],
      "stateMutability": "view",
      "type": "function",
      "constant": true
    },
    {
      "inputs": [
        {
          "internalType": "uint256",
          "name": "tokenId",
          "type": "uint256"
        }
      ],
      "name": "getApproved",
      "outputs": [
        {
          "internalType": "address",
          "name": "",
          "type": "address"
        }
      ],
      "stateMutability": "view",
      "type": "function",
      "constant": true
    },
    {
      "inputs": [
        {
          "internalType": "address",
          "name": "owner",
          "type": "address"
        },
        {
          "internalType": "address",
          "name": "operator",
          "type": "address"
        }
      ],
      "name": "isApprovedForAll",
      "outputs": [
        {
          "internalType": "bool",
          "name": "",
          "type": "bool"
        }
      ],
      "stateMutability": "view",
      "type": "function",
      "constant": true
    },
    {
      "inputs": [
        {
          "internalType": "uint256",
          "name": "",
          "type": "uint256"
        }
      ],
      "name": "lips",
      "outputs": [
        {
          "internalType": "string",
          "name": "name",
          "type": "string"
        },
        {
          "internalType": "uint256",
          "name": "id",
          "type": "uint256"
        },
        {
          "internalType": "uint256",
          "name": "dna",
          "type": "uint256"
        },
        {
          "internalType": "uint8",
          "name": "level",
          "type": "uint8"
        },
        {
          "internalType": "uint8",
          "name": "rarity",
          "type": "uint8"
        }
      ],
      "stateMutability": "view",
      "type": "function",
      "constant": true
    },
    {
      "inputs": [],
      "name": "name",
      "outputs": [
        {
          "internalType": "string",
          "name": "",
          "type": "string"
        }
      ],
      "stateMutability": "view",
      "type": "function",
      "constant": true
    },
    {
      "inputs": [],
      "name": "owner",
      "outputs": [
        {
          "internalType": "address",
          "name": "",
          "type": "address"
        }
      ],
      "stateMutability": "view",
      "type": "function",
      "constant": true
    },
    {
      "inputs": [
        {
          "internalType": "uint256",
          "name": "tokenId",
          "type": "uint256"
        }
      ],
      "name": "ownerOf",
      "outputs": [
        {
          "internalType": "address",
          "name": "",
          "type": "address"
        }
      ],
      "stateMutability": "view",
      "type": "function",
      "constant": true
    },
    {
      "inputs": [],
      "name": "renounceOwnership",
      "outputs": [],
      "stateMutability": "nonpayable",
      "type": "function"
    },
    {
      "inputs": [
        {
          "internalType": "address",
          "name": "from",
          "type": "address"
        },
        {
          "internalType": "address",
          "name": "to",
          "type": "address"
        },
        {
          "internalType": "uint256",
          "name": "tokenId",
          "type": "uint256"
        }
      ],
      "name": "safeTransferFrom",
      "outputs": [],
      "stateMutability": "nonpayable",
      "type": "function"
    },
    {
      "inputs": [
        {
          "internalType": "address",
          "name": "from",
          "type": "address"
        },
        {
          "internalType": "address",
          "name": "to",
          "type": "address"
        },
        {
          "internalType": "uint256",
          "name": "tokenId",
          "type": "uint256"
        },
        {
          "internalType": "bytes",
          "name": "_data",
          "type": "bytes"
        }
      ],
      "name": "safeTransferFrom",
      "outputs": [],
      "stateMutability": "nonpayable",
      "type": "function"
    },
    {
      "inputs": [
        {
          "internalType": "address",
          "name": "operator",
          "type": "address"
        },
        {
          "internalType": "bool",
          "name": "approved",
          "type": "bool"
        }
      ],
      "name": "setApprovalForAll",
      "outputs": [],
      "stateMutability": "nonpayable",
      "type": "function"
    },
    {
      "inputs": [
        {
          "internalType": "bytes4",
          "name": "interfaceId",
          "type": "bytes4"
        }
      ],
      "name": "supportsInterface",
      "outputs": [
        {
          "internalType": "bool",
          "name": "",
          "type": "bool"
        }
      ],
      "stateMutability": "view",
      "type": "function",
      "constant": true
    },
    {
      "inputs": [],
      "name": "symbol",
      "outputs": [
        {
          "internalType": "string",
          "name": "",
          "type": "string"
        }
      ],
      "stateMutability": "view",
      "type": "function",
      "constant": true
    },
    {
      "inputs": [
        {
          "internalType": "uint256",
          "name": "tokenId",
          "type": "uint256"
        }
      ],
      "name": "tokenURI",
      "outputs": [
        {
          "internalType": "string",
          "name": "",
          "type": "string"
        }
      ],
      "stateMutability": "view",
      "type": "function",
      "constant": true
    },
    {
      "inputs": [
        {
          "internalType": "address",
          "name": "from",
          "type": "address"
        },
        {
          "internalType": "address",
          "name": "to",
          "type": "address"
        },
        {
          "internalType": "uint256",
          "name": "tokenId",
          "type": "uint256"
        }
      ],
      "name": "transferFrom",
      "outputs": [],
      "stateMutability": "nonpayable",
      "type": "function"
    },
    {
      "inputs": [
        {
          "internalType": "address",
          "name": "newOwner",
          "type": "address"
        }
      ],
      "name": "transferOwnership",
      "outputs": [],
      "stateMutability": "nonpayable",
      "type": "function"
    },
    {
      "inputs": [
        {
          "internalType": "string",
          "name": "_name",
          "type": "string"
        }
      ],
      "name": "createRandomLip",
      "outputs": [],
      "stateMutability": "nonpayable",
      "type": "function"
    },
    {
      "inputs": [],
      "name": "getLips",
      "outputs": [
        {
          "components": [
            {
              "internalType": "string",
              "name": "name",
              "type": "string"
            },
            {
              "internalType": "uint256",
              "name": "id",
              "type": "uint256"
            },
            {
              "internalType": "uint256",
              "name": "dna",
              "type": "uint256"
            },
            {
              "internalType": "uint8",
              "name": "level",
              "type": "uint8"
            },
            {
              "internalType": "uint8",
              "name": "rarity",
              "type": "uint8"
            }
          ],
          "internalType": "struct LipToken.Lip[]",
          "name": "",
          "type": "tuple[]"
        }
      ],
      "stateMutability": "view",
      "type": "function",
      "constant": true
    }
  ],
  "bytecode": "0x60806040523480156200001157600080fd5b506040516200365a3803806200365a833981810160405281019062000037919062000285565b818181600090805190602001906200005192919062000163565b5080600190805190602001906200006a92919062000163565b5050506200008d620000816200009560201b60201c565b6200009d60201b60201c565b505062000429565b600033905090565b6000600660009054906101000a900473ffffffffffffffffffffffffffffffffffffffff16905081600660006101000a81548173ffffffffffffffffffffffffffffffffffffffff021916908373ffffffffffffffffffffffffffffffffffffffff1602179055508173ffffffffffffffffffffffffffffffffffffffff168173ffffffffffffffffffffffffffffffffffffffff167f8be0079c531659141344cd1fd0a4f28419497f9722a3daafe3b4186f6b6457e060405160405180910390a35050565b828054620001719062000395565b90600052602060002090601f016020900481019282620001955760008555620001e1565b82601f10620001b057805160ff1916838001178555620001e1565b82800160010185558215620001e1579182015b82811115620001e0578251825591602001919060010190620001c3565b5b509050620001f09190620001f4565b5090565b5b808211156200020f576000816000905550600101620001f5565b5090565b60006200022a62000224846200032c565b620002f8565b9050828152602081018484840111156200024357600080fd5b620002508482856200035f565b509392505050565b600082601f8301126200026a57600080fd5b81516200027c84826020860162000213565b91505092915050565b600080604083850312156200029957600080fd5b600083015167ffffffffffffffff811115620002b457600080fd5b620002c28582860162000258565b925050602083015167ffffffffffffffff811115620002e057600080fd5b620002ee8582860162000258565b9150509250929050565b6000604051905081810181811067ffffffffffffffff82111715620003225762000321620003fa565b5b8060405250919050565b600067ffffffffffffffff8211156200034a5762000349620003fa565b5b601f19601f8301169050602081019050919050565b60005b838110156200037f57808201518184015260208101905062000362565b838111156200038f576000848401525b50505050565b60006002820490506001821680620003ae57607f821691505b60208210811415620003c557620003c4620003cb565b5b50919050565b7f4e487b7100000000000000000000000000000000000000000000000000000000600052602260045260246000fd5b7f4e487b7100000000000000000000000000000000000000000000000000000000600052604160045260246000fd5b61322180620004396000396000f3fe608060405234801561001057600080fd5b50600436106101215760003560e01c806370a08231116100ad578063a22cb46511610071578063a22cb4651461030c578063b88d4fde14610328578063c87b56dd14610344578063e985e9c514610374578063f2fde38b146103a457610121565b806370a0823114610278578063715018a6146102a857806383b5daf7146102b25780638da5cb5b146102d057806395d89b41146102ee57610121565b806323b872dd116100f457806323b872dd146101c057806342842e0e146101dc5780635ec163db146101f85780636352211e1461022c578063698d640c1461025c57610121565b806301ffc9a71461012657806306fdde0314610156578063081812fc14610174578063095ea7b3146101a4575b600080fd5b610140600480360381019061013b9190612122565b6103c0565b60405161014d9190612a9f565b60405180910390f35b61015e6104a2565b60405161016b9190612aba565b60405180910390f35b61018e600480360381019061018991906121b5565b610534565b60405161019b9190612a16565b60405180910390f35b6101be60048036038101906101b991906120e6565b6105b9565b005b6101da60048036038101906101d59190611fe0565b6106d1565b005b6101f660048036038101906101f19190611fe0565b610731565b005b610212600480360381019061020d91906121b5565b610751565b604051610223959493929190612adc565b60405180910390f35b610246600480360381019061024191906121b5565b610839565b6040516102539190612a16565b60405180910390f35b61027660048036038101906102719190612174565b6108eb565b005b610292600480360381019061028d9190611f7b565b610906565b60405161029f9190612d36565b60405180910390f35b6102b06109be565b005b6102ba610a46565b6040516102c79190612a7d565b60405180910390f35b6102d8610b85565b6040516102e59190612a16565b60405180910390f35b6102f6610baf565b6040516103039190612aba565b60405180910390f35b610326600480360381019061032191906120aa565b610c41565b005b610342600480360381019061033d919061202f565b610dc2565b005b61035e600480360381019061035991906121b5565b610e24565b60405161036b9190612aba565b60405180910390f35b61038e60048036038101906103899190611fa4565b610ecb565b60405161039b9190612a9f565b60405180910390f35b6103be60048036038101906103b99190611f7b565b610f5f565b005b60007f80ac58cd000000000000000000000000000000000000000000000000000000007bffffffffffffffffffffffffffffffffffffffffffffffffffffffff1916827bffffffffffffffffffffffffffffffffffffffffffffffffffffffff1916148061048b57507f5b5e139f000000000000000000000000000000000000000000000000000000007bffffffffffffffffffffffffffffffffffffffffffffffffffffffff1916827bffffffffffffffffffffffffffffffffffffffffffffffffffffffff1916145b8061049b575061049a82611057565b5b9050919050565b6060600080546104b190613016565b80601f01602080910402602001604051908101604052809291908181526020018280546104dd90613016565b801561052a5780601f106104ff5761010080835404028352916020019161052a565b820191906000526020600020905b81548152906001019060200180831161050d57829003601f168201915b5050505050905090565b600061053f826110c1565b61057e576040517f08c379a000000000000000000000000000000000000000000000000000000000815260040161057590612c76565b60405180910390fd5b6004600083815260200190815260200160002060009054906101000a900473ffffffffffffffffffffffffffffffffffffffff169050919050565b60006105c482610839565b90508073ffffffffffffffffffffffffffffffffffffffff168373ffffffffffffffffffffffffffffffffffffffff161415610635576040517f08c379a000000000000000000000000000000000000000000000000000000000815260040161062c90612cf6565b60405180910390fd5b8073ffffffffffffffffffffffffffffffffffffffff1661065461112d565b73ffffffffffffffffffffffffffffffffffffffff16148061068357506106828161067d61112d565b610ecb565b5b6106c2576040517f08c379a00000000000000000000000000000000000000000000000000000000081526004016106b990612bf6565b60405180910390fd5b6106cc8383611135565b505050565b6106e26106dc61112d565b826111ee565b610721576040517f08c379a000000000000000000000000000000000000000000000000000000000815260040161071890612d16565b60405180910390fd5b61072c8383836112cc565b505050565b61074c83838360405180602001604052806000815250610dc2565b505050565b6008818154811061076157600080fd5b906000526020600020906004020160009150905080600001805461078490613016565b80601f01602080910402602001604051908101604052809291908181526020018280546107b090613016565b80156107fd5780601f106107d2576101008083540402835291602001916107fd565b820191906000526020600020905b8154815290600101906020018083116107e057829003601f168201915b5050505050908060010154908060020154908060030160009054906101000a900460ff16908060030160019054906101000a900460ff16905085565b6000806002600084815260200190815260200160002060009054906101000a900473ffffffffffffffffffffffffffffffffffffffff169050600073ffffffffffffffffffffffffffffffffffffffff168173ffffffffffffffffffffffffffffffffffffffff1614156108e2576040517f08c379a00000000000000000000000000000000000000000000000000000000081526004016108d990612c36565b60405180910390fd5b80915050919050565b60006108f682611528565b90506109028282611572565b5050565b60008073ffffffffffffffffffffffffffffffffffffffff168273ffffffffffffffffffffffffffffffffffffffff161415610977576040517f08c379a000000000000000000000000000000000000000000000000000000000815260040161096e90612c16565b60405180910390fd5b600360008373ffffffffffffffffffffffffffffffffffffffff1673ffffffffffffffffffffffffffffffffffffffff168152602001908152602001600020549050919050565b6109c661112d565b73ffffffffffffffffffffffffffffffffffffffff166109e4610b85565b73ffffffffffffffffffffffffffffffffffffffff1614610a3a576040517f08c379a0000000000000000000000000000000000000000000000000000000008152600401610a3190612c96565b60405180910390fd5b610a4460006116c3565b565b60606008805480602002602001604051908101604052809291908181526020016000905b82821015610b7c57838290600052602060002090600402016040518060a0016040529081600082018054610a9d90613016565b80601f0160208091040260200160405190810160405280929190818152602001828054610ac990613016565b8015610b165780601f10610aeb57610100808354040283529160200191610b16565b820191906000526020600020905b815481529060010190602001808311610af957829003601f168201915b5050505050815260200160018201548152602001600282015481526020016003820160009054906101000a900460ff1660ff1660ff1681526020016003820160019054906101000a900460ff1660ff1660ff168152505081526020019060010190610a6a565b50505050905090565b6000600660009054906101000a900473ffffffffffffffffffffffffffffffffffffffff16905090565b606060018054610bbe90613016565b80601f0160208091040260200160405190810160405280929190818152602001828054610bea90613016565b8015610c375780601f10610c0c57610100808354040283529160200191610c37565b820191906000526020600020905b815481529060010190602001808311610c1a57829003601f168201915b5050505050905090565b610c4961112d565b73ffffffffffffffffffffffffffffffffffffffff168273ffffffffffffffffffffffffffffffffffffffff161415610cb7576040517f08c379a0000000000000000000000000000000000000000000000000000000008152600401610cae90612bb6565b60405180910390fd5b8060056000610cc461112d565b73ffffffffffffffffffffffffffffffffffffffff1673ffffffffffffffffffffffffffffffffffffffff16815260200190815260200160002060008473ffffffffffffffffffffffffffffffffffffffff1673ffffffffffffffffffffffffffffffffffffffff16815260200190815260200160002060006101000a81548160ff0219169083151502179055508173ffffffffffffffffffffffffffffffffffffffff16610d7161112d565b73ffffffffffffffffffffffffffffffffffffffff167f17307eab39ab6107e8899845ad3d59bd9653f200f220920489ca2b5937696c3183604051610db69190612a9f565b60405180910390a35050565b610dd3610dcd61112d565b836111ee565b610e12576040517f08c379a0000000000000000000000000000000000000000000000000000000008152600401610e0990612d16565b60405180910390fd5b610e1e84848484611789565b50505050565b6060610e2f826110c1565b610e6e576040517f08c379a0000000000000000000000000000000000000000000000000000000008152600401610e6590612cd6565b60405180910390fd5b6000610e786117e5565b90506000815111610e985760405180602001604052806000815250610ec3565b80610ea2846117fc565b604051602001610eb39291906129f2565b6040516020818303038152906040525b915050919050565b6000600560008473ffffffffffffffffffffffffffffffffffffffff1673ffffffffffffffffffffffffffffffffffffffff16815260200190815260200160002060008373ffffffffffffffffffffffffffffffffffffffff1673ffffffffffffffffffffffffffffffffffffffff16815260200190815260200160002060009054906101000a900460ff16905092915050565b610f6761112d565b73ffffffffffffffffffffffffffffffffffffffff16610f85610b85565b73ffffffffffffffffffffffffffffffffffffffff1614610fdb576040517f08c379a0000000000000000000000000000000000000000000000000000000008152600401610fd290612c96565b60405180910390fd5b600073ffffffffffffffffffffffffffffffffffffffff168173ffffffffffffffffffffffffffffffffffffffff16141561104b576040517f08c379a000000000000000000000000000000000000000000000000000000000815260040161104290612b56565b60405180910390fd5b611054816116c3565b50565b60007f01ffc9a7000000000000000000000000000000000000000000000000000000007bffffffffffffffffffffffffffffffffffffffffffffffffffffffff1916827bffffffffffffffffffffffffffffffffffffffffffffffffffffffff1916149050919050565b60008073ffffffffffffffffffffffffffffffffffffffff166002600084815260200190815260200160002060009054906101000a900473ffffffffffffffffffffffffffffffffffffffff1673ffffffffffffffffffffffffffffffffffffffff1614159050919050565b600033905090565b816004600083815260200190815260200160002060006101000a81548173ffffffffffffffffffffffffffffffffffffffff021916908373ffffffffffffffffffffffffffffffffffffffff160217905550808273ffffffffffffffffffffffffffffffffffffffff166111a883610839565b73ffffffffffffffffffffffffffffffffffffffff167f8c5be1e5ebec7d5bd14f71427d1e84f3dd0314c0f7b2291e5b200ac8c7c3b92560405160405180910390a45050565b60006111f9826110c1565b611238576040517f08c379a000000000000000000000000000000000000000000000000000000000815260040161122f90612bd6565b60405180910390fd5b600061124383610839565b90508073ffffffffffffffffffffffffffffffffffffffff168473ffffffffffffffffffffffffffffffffffffffff1614806112b257508373ffffffffffffffffffffffffffffffffffffffff1661129a84610534565b73ffffffffffffffffffffffffffffffffffffffff16145b806112c357506112c28185610ecb565b5b91505092915050565b8273ffffffffffffffffffffffffffffffffffffffff166112ec82610839565b73ffffffffffffffffffffffffffffffffffffffff1614611342576040517f08c379a000000000000000000000000000000000000000000000000000000000815260040161133990612cb6565b60405180910390fd5b600073ffffffffffffffffffffffffffffffffffffffff168273ffffffffffffffffffffffffffffffffffffffff1614156113b2576040517f08c379a00000000000000000000000000000000000000000000000000000000081526004016113a990612b96565b60405180910390fd5b6113bd8383836119a9565b6113c8600082611135565b6001600360008573ffffffffffffffffffffffffffffffffffffffff1673ffffffffffffffffffffffffffffffffffffffff16815260200190815260200160002060008282546114189190612f1f565b925050819055506001600360008473ffffffffffffffffffffffffffffffffffffffff1673ffffffffffffffffffffffffffffffffffffffff168152602001908152602001600020600082825461146f9190612e98565b92505081905550816002600083815260200190815260200160002060006101000a81548173ffffffffffffffffffffffffffffffffffffffff021916908373ffffffffffffffffffffffffffffffffffffffff160217905550808273ffffffffffffffffffffffffffffffffffffffff168473ffffffffffffffffffffffffffffffffffffffff167fddf252ad1be2c89b69c2b068fc378daa952ba7f163c4a11628f55a4df523b3ef60405160405180910390a4505050565b6000808260405160200161153c91906129db565b6040516020818303038152906040528051906020012060001c9050662386f26fc100008161156a9190613091565b915050919050565b60006040518060a001604052808481526020016007548152602001838152602001600160ff168152602001603260ff168152509050600881908060018154018082558091505060019003906000526020600020906004020160009091909190915060008201518160000190805190602001906115ef929190611d9f565b50602082015181600101556040820151816002015560608201518160030160006101000a81548160ff021916908360ff16021790555060808201518160030160016101000a81548160ff021916908360ff1602179055505050611654336007546119ae565b3373ffffffffffffffffffffffffffffffffffffffff167f24d2d558f98bdd9d21339e119fc0b03e213c7d05affd838ac2ee136d90e3bbeb6007548460405161169e929190612d51565b60405180910390a2600760008154809291906116b990613048565b9190505550505050565b6000600660009054906101000a900473ffffffffffffffffffffffffffffffffffffffff16905081600660006101000a81548173ffffffffffffffffffffffffffffffffffffffff021916908373ffffffffffffffffffffffffffffffffffffffff1602179055508173ffffffffffffffffffffffffffffffffffffffff168173ffffffffffffffffffffffffffffffffffffffff167f8be0079c531659141344cd1fd0a4f28419497f9722a3daafe3b4186f6b6457e060405160405180910390a35050565b6117948484846112cc565b6117a0848484846119cc565b6117df576040517f08c379a00000000000000000000000000000000000000000000000000000000081526004016117d690612b36565b60405180910390fd5b50505050565b606060405180602001604052806000815250905090565b60606000821415611844576040518060400160405280600181526020017f300000000000000000000000000000000000000000000000000000000000000081525090506119a4565b600082905060005b6000821461187657808061185f90613048565b915050600a8261186f9190612eee565b915061184c565b60008167ffffffffffffffff8111156118b8577f4e487b7100000000000000000000000000000000000000000000000000000000600052604160045260246000fd5b6040519080825280601f01601f1916602001820160405280156118ea5781602001600182028036833780820191505090505b5090505b6000851461199d576001826119039190612f1f565b9150600a856119129190613091565b603061191e9190612e98565b60f81b81838151811061195a577f4e487b7100000000000000000000000000000000000000000000000000000000600052603260045260246000fd5b60200101907effffffffffffffffffffffffffffffffffffffffffffffffffffffffffffff1916908160001a905350600a856119969190612eee565b94506118ee565b8093505050505b919050565b505050565b6119c8828260405180602001604052806000815250611b63565b5050565b60006119ed8473ffffffffffffffffffffffffffffffffffffffff16611bbe565b15611b56578373ffffffffffffffffffffffffffffffffffffffff1663150b7a02611a1661112d565b8786866040518563ffffffff1660e01b8152600401611a389493929190612a31565b602060405180830381600087803b158015611a5257600080fd5b505af1925050508015611a8357506040513d601f19601f82011682018060405250810190611a80919061214b565b60015b611b06573d8060008114611ab3576040519150601f19603f3d011682016040523d82523d6000602084013e611ab8565b606091505b50600081511415611afe576040517f08c379a0000000000000000000000000000000000000000000000000000000008152600401611af590612b36565b60405180910390fd5b805181602001fd5b63150b7a0260e01b7bffffffffffffffffffffffffffffffffffffffffffffffffffffffff1916817bffffffffffffffffffffffffffffffffffffffffffffffffffffffff191614915050611b5b565b600190505b949350505050565b611b6d8383611bd1565b611b7a60008484846119cc565b611bb9576040517f08c379a0000000000000000000000000000000000000000000000000000000008152600401611bb090612b36565b60405180910390fd5b505050565b600080823b905060008111915050919050565b600073ffffffffffffffffffffffffffffffffffffffff168273ffffffffffffffffffffffffffffffffffffffff161415611c41576040517f08c379a0000000000000000000000000000000000000000000000000000000008152600401611c3890612c56565b60405180910390fd5b611c4a816110c1565b15611c8a576040517f08c379a0000000000000000000000000000000000000000000000000000000008152600401611c8190612b76565b60405180910390fd5b611c96600083836119a9565b6001600360008473ffffffffffffffffffffffffffffffffffffffff1673ffffffffffffffffffffffffffffffffffffffff1681526020019081526020016000206000828254611ce69190612e98565b92505081905550816002600083815260200190815260200160002060006101000a81548173ffffffffffffffffffffffffffffffffffffffff021916908373ffffffffffffffffffffffffffffffffffffffff160217905550808273ffffffffffffffffffffffffffffffffffffffff16600073ffffffffffffffffffffffffffffffffffffffff167fddf252ad1be2c89b69c2b068fc378daa952ba7f163c4a11628f55a4df523b3ef60405160405180910390a45050565b828054611dab90613016565b90600052602060002090601f016020900481019282611dcd5760008555611e14565b82601f10611de657805160ff1916838001178555611e14565b82800160010185558215611e14579182015b82811115611e13578251825591602001919060010190611df8565b5b509050611e219190611e25565b5090565b5b80821115611e3e576000816000905550600101611e26565b5090565b6000611e55611e5084612dab565b612d7a565b905082815260208101848484011115611e6d57600080fd5b611e78848285612fd4565b509392505050565b6000611e93611e8e84612ddb565b612d7a565b905082815260208101848484011115611eab57600080fd5b611eb6848285612fd4565b509392505050565b600081359050611ecd8161318f565b92915050565b600081359050611ee2816131a6565b92915050565b600081359050611ef7816131bd565b92915050565b600081519050611f0c816131bd565b92915050565b600082601f830112611f2357600080fd5b8135611f33848260208601611e42565b91505092915050565b600082601f830112611f4d57600080fd5b8135611f5d848260208601611e80565b91505092915050565b600081359050611f75816131d4565b92915050565b600060208284031215611f8d57600080fd5b6000611f9b84828501611ebe565b91505092915050565b60008060408385031215611fb757600080fd5b6000611fc585828601611ebe565b9250506020611fd685828601611ebe565b9150509250929050565b600080600060608486031215611ff557600080fd5b600061200386828701611ebe565b935050602061201486828701611ebe565b925050604061202586828701611f66565b9150509250925092565b6000806000806080858703121561204557600080fd5b600061205387828801611ebe565b945050602061206487828801611ebe565b935050604061207587828801611f66565b925050606085013567ffffffffffffffff81111561209257600080fd5b61209e87828801611f12565b91505092959194509250565b600080604083850312156120bd57600080fd5b60006120cb85828601611ebe565b92505060206120dc85828601611ed3565b9150509250929050565b600080604083850312156120f957600080fd5b600061210785828601611ebe565b925050602061211885828601611f66565b9150509250929050565b60006020828403121561213457600080fd5b600061214284828501611ee8565b91505092915050565b60006020828403121561215d57600080fd5b600061216b84828501611efd565b91505092915050565b60006020828403121561218657600080fd5b600082013567ffffffffffffffff8111156121a057600080fd5b6121ac84828501611f3c565b91505092915050565b6000602082840312156121c757600080fd5b60006121d584828501611f66565b91505092915050565b60006121ea8383612929565b905092915050565b6121fb81612f53565b82525050565b600061220c82612e1b565b6122168185612e49565b93508360208202850161222885612e0b565b8060005b85811015612264578484038952815161224585826121de565b945061225083612e3c565b925060208a0199505060018101905061222c565b50829750879550505050505092915050565b61227f81612f65565b82525050565b600061229082612e26565b61229a8185612e5a565b93506122aa818560208601612fe3565b6122b38161317e565b840191505092915050565b60006122c982612e31565b6122d38185612e6b565b93506122e3818560208601612fe3565b6122ec8161317e565b840191505092915050565b600061230282612e31565b61230c8185612e7c565b935061231c818560208601612fe3565b6123258161317e565b840191505092915050565b600061233b82612e31565b6123458185612e8d565b9350612355818560208601612fe3565b80840191505092915050565b600061236e603283612e7c565b91507f4552433732313a207472616e7366657220746f206e6f6e20455243373231526560008301527f63656976657220696d706c656d656e74657200000000000000000000000000006020830152604082019050919050565b60006123d4602683612e7c565b91507f4f776e61626c653a206e6577206f776e657220697320746865207a65726f206160008301527f64647265737300000000000000000000000000000000000000000000000000006020830152604082019050919050565b600061243a601c83612e7c565b91507f4552433732313a20746f6b656e20616c7265616479206d696e746564000000006000830152602082019050919050565b600061247a602483612e7c565b91507f4552433732313a207472616e7366657220746f20746865207a65726f2061646460008301527f72657373000000000000000000000000000000000000000000000000000000006020830152604082019050919050565b60006124e0601983612e7c565b91507f4552433732313a20617070726f766520746f2063616c6c6572000000000000006000830152602082019050919050565b6000612520602c83612e7c565b91507f4552433732313a206f70657261746f7220717565727920666f72206e6f6e657860008301527f697374656e7420746f6b656e00000000000000000000000000000000000000006020830152604082019050919050565b6000612586603883612e7c565b91507f4552433732313a20617070726f76652063616c6c6572206973206e6f74206f7760008301527f6e6572206e6f7220617070726f76656420666f7220616c6c00000000000000006020830152604082019050919050565b60006125ec602a83612e7c565b91507f4552433732313a2062616c616e636520717565727920666f7220746865207a6560008301527f726f2061646472657373000000000000000000000000000000000000000000006020830152604082019050919050565b6000612652602983612e7c565b91507f4552433732313a206f776e657220717565727920666f72206e6f6e657869737460008301527f656e7420746f6b656e00000000000000000000000000000000000000000000006020830152604082019050919050565b60006126b8602083612e7c565b91507f4552433732313a206d696e7420746f20746865207a65726f20616464726573736000830152602082019050919050565b60006126f8602c83612e7c565b91507f4552433732313a20617070726f76656420717565727920666f72206e6f6e657860008301527f697374656e7420746f6b656e00000000000000000000000000000000000000006020830152604082019050919050565b600061275e602083612e7c565b91507f4f776e61626c653a2063616c6c6572206973206e6f7420746865206f776e65726000830152602082019050919050565b600061279e602983612e7c565b91507f4552433732313a207472616e73666572206f6620746f6b656e2074686174206960008301527f73206e6f74206f776e00000000000000000000000000000000000000000000006020830152604082019050919050565b6000612804602f83612e7c565b91507f4552433732314d657461646174613a2055524920717565727920666f72206e6f60008301527f6e6578697374656e7420746f6b656e00000000000000000000000000000000006020830152604082019050919050565b600061286a602183612e7c565b91507f4552433732313a20617070726f76616c20746f2063757272656e74206f776e6560008301527f72000000000000000000000000000000000000000000000000000000000000006020830152604082019050919050565b60006128d0603183612e7c565b91507f4552433732313a207472616e736665722063616c6c6572206973206e6f74206f60008301527f776e6572206e6f7220617070726f7665640000000000000000000000000000006020830152604082019050919050565b600060a083016000830151848203600086015261294682826122be565b915050602083015161295b602086018261299f565b50604083015161296e604086018261299f565b50606083015161298160608601826129bd565b50608083015161299460808601826129bd565b508091505092915050565b6129a881612fbd565b82525050565b6129b781612fbd565b82525050565b6129c681612fc7565b82525050565b6129d581612fc7565b82525050565b60006129e78284612330565b915081905092915050565b60006129fe8285612330565b9150612a0a8284612330565b91508190509392505050565b6000602082019050612a2b60008301846121f2565b92915050565b6000608082019050612a4660008301876121f2565b612a5360208301866121f2565b612a6060408301856129ae565b8181036060830152612a728184612285565b905095945050505050565b60006020820190508181036000830152612a978184612201565b905092915050565b6000602082019050612ab46000830184612276565b92915050565b60006020820190508181036000830152612ad481846122f7565b905092915050565b600060a0820190508181036000830152612af681886122f7565b9050612b0560208301876129ae565b612b1260408301866129ae565b612b1f60608301856129cc565b612b2c60808301846129cc565b9695505050505050565b60006020820190508181036000830152612b4f81612361565b9050919050565b60006020820190508181036000830152612b6f816123c7565b9050919050565b60006020820190508181036000830152612b8f8161242d565b9050919050565b60006020820190508181036000830152612baf8161246d565b9050919050565b60006020820190508181036000830152612bcf816124d3565b9050919050565b60006020820190508181036000830152612bef81612513565b9050919050565b60006020820190508181036000830152612c0f81612579565b9050919050565b60006020820190508181036000830152612c2f816125df565b9050919050565b60006020820190508181036000830152612c4f81612645565b9050919050565b60006020820190508181036000830152612c6f816126ab565b9050919050565b60006020820190508181036000830152612c8f816126eb565b9050919050565b60006020820190508181036000830152612caf81612751565b9050919050565b60006020820190508181036000830152612ccf81612791565b9050919050565b60006020820190508181036000830152612cef816127f7565b9050919050565b60006020820190508181036000830152612d0f8161285d565b9050919050565b60006020820190508181036000830152612d2f816128c3565b9050919050565b6000602082019050612d4b60008301846129ae565b92915050565b6000604082019050612d6660008301856129ae565b612d7360208301846129ae565b9392505050565b6000604051905081810181811067ffffffffffffffff82111715612da157612da061314f565b5b8060405250919050565b600067ffffffffffffffff821115612dc657612dc561314f565b5b601f19601f8301169050602081019050919050565b600067ffffffffffffffff821115612df657612df561314f565b5b601f19601f8301169050602081019050919050565b6000819050602082019050919050565b600081519050919050565b600081519050919050565b600081519050919050565b6000602082019050919050565b600082825260208201905092915050565b600082825260208201905092915050565b600082825260208201905092915050565b600082825260208201905092915050565b600081905092915050565b6000612ea382612fbd565b9150612eae83612fbd565b9250827fffffffffffffffffffffffffffffffffffffffffffffffffffffffffffffffff03821115612ee357612ee26130c2565b5b828201905092915050565b6000612ef982612fbd565b9150612f0483612fbd565b925082612f1457612f136130f1565b5b828204905092915050565b6000612f2a82612fbd565b9150612f3583612fbd565b925082821015612f4857612f476130c2565b5b828203905092915050565b6000612f5e82612f9d565b9050919050565b60008115159050919050565b60007fffffffff0000000000000000000000000000000000000000000000000000000082169050919050565b600073ffffffffffffffffffffffffffffffffffffffff82169050919050565b6000819050919050565b600060ff82169050919050565b82818337600083830152505050565b60005b83811015613001578082015181840152602081019050612fe6565b83811115613010576000848401525b50505050565b6000600282049050600182168061302e57607f821691505b6020821081141561304257613041613120565b5b50919050565b600061305382612fbd565b91507fffffffffffffffffffffffffffffffffffffffffffffffffffffffffffffffff821415613086576130856130c2565b5b600182019050919050565b600061309c82612fbd565b91506130a783612fbd565b9250826130b7576130b66130f1565b5b828206905092915050565b7f4e487b7100000000000000000000000000000000000000000000000000000000600052601160045260246000fd5b7f4e487b7100000000000000000000000000000000000000000000000000000000600052601260045260246000fd5b7f4e487b7100000000000000000000000000000000000000000000000000000000600052602260045260246000fd5b7f4e487b7100000000000000000000000000000000000000000000000000000000600052604160045260246000fd5b6000601f19601f8301169050919050565b61319881612f53565b81146131a357600080fd5b50565b6131af81612f65565b81146131ba57600080fd5b50565b6131c681612f71565b81146131d157600080fd5b50565b6131dd81612fbd565b81146131e857600080fd5b5056fea264697066735822122049d2ce2977c4202090f6336a73a66ab1bd1ce4a773cb89c70d1095ff4d083bcb64736f6c63430008000033",
  "immutableReferences": {},
  "source": "// SPDX-License-Identifier: MIT\n\npragma solidity ^0.8.0;\n\nimport \"@openzeppelin/contracts/token/ERC721/ERC721.sol\";\nimport \"@openzeppelin/contracts/access/Ownable.sol\";\n\ncontract LipToken is ERC721, Ownable {\n    constructor(string memory _name, string memory _symbol)\n        ERC721(_name, _symbol)\n    {}\n\n    uint256 COUNTER;\n\n    struct Lip {\n        string name;\n        uint256 id;\n        uint256 dna;\n        uint8 level;\n        uint8 rarity;\n    }\n\n    Lip[] public lips;\n\n    event NewLip(address indexed owner, uint256 id, uint256 dna);\n\n    function _genRandomDna(string memory _str) internal pure returns (uint256) {\n        uint256 randomNum = uint256(keccak256(abi.encodePacked(_str)));\n        return randomNum % 10**16;\n    }\n\n    function _createLip(string memory _name, uint256 _dna) internal {\n        Lip memory newlip = Lip(_name, COUNTER, _dna, 1, 50);\n        lips.push(newlip);\n        _safeMint(msg.sender, COUNTER);\n        emit NewLip(msg.sender, COUNTER, _dna);\n        COUNTER++;\n    }\n\n    function createRandomLip(string memory _name) public {\n        uint256 randDna = _genRandomDna(_name);\n        _createLip(_name, randDna);\n    }\n\n    function getLips() public view returns (Lip[] memory) {\n        return lips;\n    }\n}\n",
  "sourcePath": "/Users/jmill/projects/learn/nft_game/contracts/LipToken.sol",
  "compiler": {
    "name": "solc",
    "version": "0.8.0+commit.c7dfd78e.Emscripten.clang"
  },
  "schemaVersion": "3.4.3",
  "updatedAt": "2021-09-02T17:41:08.310Z",
  "networkType": "ethereum",
  "devdoc": {
    "kind": "dev",
    "methods": {
      "approve(address,uint256)": {
        "details": "See {IERC721-approve}."
      },
      "balanceOf(address)": {
        "details": "See {IERC721-balanceOf}."
      },
      "getApproved(uint256)": {
        "details": "See {IERC721-getApproved}."
      },
      "isApprovedForAll(address,address)": {
        "details": "See {IERC721-isApprovedForAll}."
      },
      "name()": {
        "details": "See {IERC721Metadata-name}."
      },
      "owner()": {
        "details": "Returns the address of the current owner."
      },
      "ownerOf(uint256)": {
        "details": "See {IERC721-ownerOf}."
      },
      "renounceOwnership()": {
        "details": "Leaves the contract without owner. It will not be possible to call `onlyOwner` functions anymore. Can only be called by the current owner. NOTE: Renouncing ownership will leave the contract without an owner, thereby removing any functionality that is only available to the owner."
      },
      "safeTransferFrom(address,address,uint256)": {
        "details": "See {IERC721-safeTransferFrom}."
      },
      "safeTransferFrom(address,address,uint256,bytes)": {
        "details": "See {IERC721-safeTransferFrom}."
      },
      "setApprovalForAll(address,bool)": {
        "details": "See {IERC721-setApprovalForAll}."
      },
      "supportsInterface(bytes4)": {
        "details": "See {IERC165-supportsInterface}."
      },
      "symbol()": {
        "details": "See {IERC721Metadata-symbol}."
      },
      "tokenURI(uint256)": {
        "details": "See {IERC721Metadata-tokenURI}."
      },
      "transferFrom(address,address,uint256)": {
        "details": "See {IERC721-transferFrom}."
      },
      "transferOwnership(address)": {
        "details": "Transfers ownership of the contract to a new account (`newOwner`). Can only be called by the current owner."
      }
    },
    "version": 1
  },
  "userdoc": {
    "kind": "user",
    "methods": {},
    "version": 1
  }
}